:100000000C9464000C94C3080C94EA080C948C00C3
:100010000C948C000C948C000C948C000C94AA060C
:100020000C948C000C948C000C948C000C94B503F4
:100030000C948C000C948C000C948C000C948C0010
:100040000C9411090C948C000C94630C0C94950C7A
:100050000C948C000C948C000C948C000C948C00F0
:100060000C948C000C948C0000000008000201002D
:100070000003040700000000000000000102040863
:100080001020408001020408102001020408102002
:10009000040404040404040402020202020203032E
:1000A00003030303000000002300260029000000D2
:1000B0000000250028002B0000000000240027007D
:1000C0002A00A9038108C50C11241FBECFEFD8E078
:1000D000DEBFCDBF11E0A0E0B1E0E4ECF0E202C091
:1000E00005900D92A83BB107D9F722E0A8EBB1E04B
:1000F00001C01D92AC3EB207E1F710E0C8ECD0E0C1
:1001000004C02297FE010E944D10C23CD107C9F7DE
:100110000E94090D0C9460100C94000060E070E0E7
:1001200085E00E94270A60E070E086E00E94270ACE
:100130008091B80181608093B801089560E070E01B
:1001400085E00E94270A60E070E086E00E94270AAE
:100150008091B80182608093B801089548EB5BE01C
:1001600060E070E08EEF91E00E94CA0720E032EC80
:1001700041E050E06FE472E08EEF91E00E94DE0714
:1001800061E08EEF91E00E9494078823A1F069E07E
:1001900071E080914002909141020E94560D4AE028
:1001A00050E060E070E08EEF91E00E94F8068EEF84
:1001B00091E00E94C90741E060E08EEF91E00E946B
:1001C000650826E040E052EC61E070E08FE492E0E8
:1001D0000E94010C61E08FE00E94AF0A61E080E1C3
:1001E0000E94AF0A61E081E10E94AF0A61E082E112
:1001F0000E94AF0A62E08EE00E94E80A62E083E1BA
:100200000E94E80A40E050E06EE870E080E00E9462
:10021000A30840E050E06EE970E081E00E94A3088E
:100220006BE070E089EB91E00E940B0568EB7BE0EE
:1002300080E090E00C948A0960E070E08CEB91E043
:100240000E947506BC0180E090E00E942D0F20E026
:1002500030E048E652E40E94990E08956AE570E0A5
:1002600089EB91E00E9444050C941C0165E070E06C
:1002700089EB91E00E9444050C941C0161EB70E055
:1002800089EB91E00E9444050C941C01CF93DF930D
:10029000EC0197FD0AC061E08FE00E94E80A60E08F
:1002A00080E10E94E80ABE010CC060E08FE00E947D
:1002B000E80A61E080E10E94E80A662777276C1B64
:1002C0007D0B85E0DF91CF910C94270ACF93DF93CC
:1002D000EC0197FD0AC061E081E10E94E80A60E05C
:1002E00082E10E94E80ABE010CC060E081E10E9448
:1002F000E80A61E082E10E94E80A662777276C1B22
:100300007D0B86E0DF91CF910C94270ACF93DF938A
:10031000EB010E944601CE01DF91CF910C94660162
:1003200090E0BC019195819591090C94860190E033
:1003300066277727681B790B0C94860190E09195CE
:1003400081959109BC010C94860160E070E080E029
:1003500090E00C9486014F925F926F927F928F9201
:100360009F92AF92BF92CF92DF92EF92FF92CF9384
:100370000E942E016B017C0120E030E048EC51E44A
:100380000E94950E87FF4AC020E030E0A901C70116
:10039000B6010E94DF0F18160CF040C00E94A501A4
:1003A0000E9436012B013C0168EC70E080E090E097
:1003B0000E948A090E943E014B015C0168EC70E0DA
:1003C00080E090E00E948A09A5019401C301B20176
:1003D0000E94DF0F181614F0C0E001C0C2E0A501B2
:1003E0009401C301B2010E94950E18160CF0C1E0F1
:1003F00020E030E040E751E4C301B2010E94950ED5
:1004000087FF25C020E030E040E751E4C501B4019A
:100410000E94950E87FF1BC0C3E019C020E030E0AA
:1004200040E251E4C701B6010E94950E87FF0DC05E
:1004300020E030E0A901C701B6010E94DF0F1816C5
:1004400024F40E94A501C3E00CC0C0E00AC020E073
:1004500030E040E251E4C701B6010E94950E87FDED
:10046000F0CF8C2FCF91FF90EF90DF90CF90BF9087
:10047000AF909F908F907F906F905F904F90089576
:100480009B01281B390B241735074CF09C01261BB8
:10049000370B81E0241735071CF080E0089582E0D7
:1004A00008958617970789F09C01261B370BB90121
:1004B00080E090E00E942D0F9B01AC010E94310E64
:1004C0000E94010F362F272F02C030E020E0832F3B
:1004D000922F8536910510F084E690E00895CF9232
:1004E000DF92EF92FF920F931F93CF93DF9300D091
:1004F000CDB7DEB70E945B09672B682B692B39F4F7
:100500000E945B096230710581059105B8F18EEF9B
:1005100091E00E94FB066093CE017093CF0180931F
:10052000D0019093D1010091D2011091D30120917B
:10053000D4013091D501601771078207930740F409
:100540006093D2017093D3018093D4019093D5012D
:100550000091D2011091D3012091D4013091D501A5
:100560006B017C01C01AD10AE20AF30A97018601E5
:100570000A3F11052105310508F0A6C06DE171E0C3
:100580008FE492E00E94560D6091B8014AE050E07D
:100590008FE492E00E94D10D6AE570E089EB91E072
:1005A0000E9444050E94AB01282F83E12A830E9408
:1005B0000A0A8C018EE00E940A0A7C0145E050E0A4
:1005C000BC01C8010E944002482FB701C8014983FD
:1005D0000E9451022A814981211111C0423009F43F
:1005E00056C0413009F459C060E570E08FE490E0F6
:1005F0000E94860162E370E080E090E02BC023302F
:10060000A9F190F42130B1F0223009F051C088EC0A
:100610000E949E0164E670E080E090E00E948A09FA
:1006200086E90E94970112C0243089F1253009F033
:100630003FC033C088EC0E949E0164E670E080E019
:1006400090E00E948A0986E90E94900168E572E0C4
:1006500080E090E00F900F90DF91CF911F910F916C
:10066000FF90EF90DF90CF900C948A0988EC0E9465
:100670009E0168EC70E080E090E00E948A0986E9C3
:100680000E94970168EC70E080E090E0E3CFBC014D
:100690006C597F4F84E690E004C064E670E08C59AA
:1006A0009F4F0E9486016FE070E080E090E0D2CF23
:1006B0000F900F90DF91CF911F910F91FF90EF90CE
:1006C000DF90CF900C94A5016093D2017093D30179
:1006D0008093D4019093D50144EF51E060E070E045
:1006E0008EEF91E00E94FD0661E08EEF91E00E94A6
:1006F0009407882309F161E08EEF91E00E941907C9
:100700006BE171E080914002909141020E94560D90
:100710000E945B09AB01BC012AE030E080914002FD
:10072000909141020E94BD0D8EEF91E00E947F07E3
:100730008EEF91E00E94C90742E050E060E070E077
:100740008EEF91E00E94F8068EEF91E00E948807FC
:1007500015CF28EC30E049E068E08CEB91E00E9496
:10076000280689EB91E00C9471041F920F920FB64A
:100770000F9211242F933F934F935F936F937F9327
:100780008F939F93AF93BF93EF93FF938091D70184
:1007900087FF05C010928500109284001AC0209136
:1007A000D701332727FD30958091D60190E0281797
:1007B00039077CF48091D701992787FD9095FC013A
:1007C000EE0FFF1FE80FF91FE852FE4F808186FDF4
:1007D00015C08091D7018F5F8093D7012091D701F9
:1007E000332727FD30958091D60190E028173907EF
:1007F000BCF48091D7018C305CF112C08091D7019C
:10080000992787FD9095FC01EE0FFF1FE80FF91F58
:10081000E852FE4F808160E08F730E94E80AD9CFD2
:100820008091840090918500049680349C4918F44E
:1008300080E49CE905C08091840090918500049635
:1008400090938900809388008FEF8093D70138C000
:1008500020918400309185008091D701992787FDF0
:100860009095FC01EE0FFF1FE80FF91FE852FE4FB5
:1008700081819281820F931F9093890080938800D9
:100880008091D701992787FD9095FC01EE0FFF1FFE
:10089000E80FF91FE852FE4F808186FF11C080915A
:1008A000D701992787FD9095FC01EE0FFF1FE80FF8
:1008B000F91FE852FE4F808161E08F730E94E80AC1
:1008C000FF91EF91BF91AF919F918F917F916F9128
:1008D0005F914F913F912F910F900FBE0F901F90FE
:1008E00018952091D6012C30A0F431E0320F3093CE
:1008F000D601FC012083822F90E0FC01EE0FFF1F48
:10090000E80FF91FE852FE4F88EB9BE0928381834A
:1009100008952FEFFC0120830895DF92EF92FF925C
:100920000F931F93CF93DF93EC01D62E7A018901A9
:1009300088818C3008F066C061E08D2D0E94AF0A7E
:100940008881A82FB0E0FD01EE0FFF1FEA0FFB1F0B
:10095000E852FE4F2D2D2F739081907C922B908327
:1009600060E272E06E197F0977FF02C06D5F7F4F12
:100970007595679575956795698340E659E0401BC5
:10098000510B57FF02C04D5F5F4F559547955595E9
:1009900047954A836CE00E94F30F9CE0899FB00169
:1009A000112420E030E0A901460F571FFA01EE0F95
:1009B000FF1FE40FF51FE852FE4F908196FD16C011
:1009C0002F5F3F4F2C30310571F781110FC010920E
:1009D000800082E080938100109285001092840054
:1009E000B19A80916F00826080936F00888190E05F
:1009F000FC01EE0FFF1FE80FF91FE852FE4F808148
:100A0000806480838881DF91CF911F910F91FF9047
:100A1000EF90DF90089520E639E040E252E00C9438
:100A20008D04FC0180818C3070F5918128E830E0E4
:100A3000291B310997FD3395220F331F220F331FD6
:100A4000621773077CF0928128E532E0291B310997
:100A500097FD3395220F331F220F331F6217730741
:100A60000CF49B0122503109220F331F4FB7F89429
:100A700090E0FC01EE0FFF1FE80FF91FE852FE4F58
:100A8000328321834FBF08954F925F926F927F927E
:100A9000AF92BF92CF92DF92EF92FF920F931F938C
:100AA000CF93DF93EC01603282E078070CF040C016
:100AB00077FD06C0653B71052CF064EB70E002C069
:100AC00060E070E0898128E830E0281B310987FD6B
:100AD0003395220F331F220F331F5901CC24B7FC4B
:100AE000C094DC2C882777FD8095982F2A8148E5D3
:100AF00052E0421B510927FD5395440F551F440FE7
:100B0000551F2A01662457FC6094762C7F926F92C1
:100B10005F924F9214EBE12EF12C00E010E020E008
:100B200030E0A9010E94E80D0F900F900F900F90F8
:100B3000CE01DF91CF911F910F91FF90EF90DF9049
:100B4000CF90BF90AF907F906F905F904F900C943C
:100B500011050F931F93CF93DF93EC01EA85FB857B
:100B600080819C81892B8083EE81FF8190818C81A3
:100B700080958923808384E090E00E94C409EE81FF
:100B8000FF8180819C81892B80838AE090E00E9494
:100B9000C409EE81FF8190818C81809589238083B7
:100BA000EA85FB8590818C81809589238083E88507
:100BB000F98580819D81892311F080E032C00E94F7
:100BC00067094C855D858A0120E030E00855194EA3
:100BD0002F4F3F4F060F171F281F391F0E871F87E4
:100BE000288B398BE885F98580819D81892361F483
:100BF0000E9467090E851F852889398906171707FE
:100C00002807390778F7D9CF0E9467092C853D85D9
:100C1000620F731F811D911D6E877F87888B998B53
:100C200081E0DF91CF911F910F9108956F5F7F4F0A
:100C300049E3469F9001479F300D11242E384FE61F
:100C4000340710F02DE83FE6FC013587248708952E
:100C50000F931F93CF93DF93DC01062F10E0F80171
:100C6000E458FF4FE4911496EC931497842F90E08E
:100C7000FC01E458FF4FE4911596EC93159700574B
:100C80001F4FF801C491D0E0CC0FDD1FC255DF4FDC
:100C9000FE014591549117965C934E931697FC0173
:100CA000E057FF4F849190E0880F991F8C559F4F1C
:100CB000FC014591549119965C934E931897F80155
:100CC0000491E02FF0E0EE0FFF1FE854FF4F8591F5
:100CD00094911B969C938E931A97B901CD01DF9145
:100CE000CF911F910F910C9416060F931F93CF93E2
:100CF000DF93EC016115710511F00E941606CE011B
:100D00000E94A905882389F0E885F98580819D8165
:100D1000892371F00E9467090E851F85288939890A
:100D2000061717072807390778F720E030E00CC0CE
:100D30000E9467092C853D85255031094E855F85C8
:100D4000241B350B260F371FC901DF91CF911F914F
:100D50000F9108951F920F920FB60F9211242F93A7
:100D60003F934F935F936F937F938F939F93AF9333
:100D7000BF93EF93FF93E091FC01F091FD01099582
:100D8000FF91EF91BF91AF919F918F917F916F9163
:100D90005F914F913F912F910F900FBE0F901F9039
:100DA00018958F929F92AF92BF92CF92DF92EF925F
:100DB000FF926A017B010E945B094B015C01C60E38
:100DC000D71EE81EF91E0E945B09681579058A0581
:100DD0009B0528F0C616D706E806F906A0F7FF908F
:100DE000EF90DF90CF90BF90AF909F908F9008953D
:100DF00021E00C94D1060C945B09CF93DF93EC01B6
:100E00004E875F87688B798B1A8A1B8A1C8A1D8A9A
:100E10004E815F81688579854A875B876C877D878E
:100E20000E945B096E837F8388879987DF91CF91CA
:100E30000895BF92CF92DF92EF92FF920F931F938C
:100E4000CF93DF938C01B62E0E945B096B017C016E
:100E5000E801CE5BDF4F6FE271E0888199810E94EB
:100E6000560D4AE050E06B2D888199810E94CA0D91
:100E700066E371E0888199810E94560D2AE030E096
:100E8000B701A601888199810E94BD0D68E371E0D8
:100E9000888199810E94560DF80186819781A085ED
:100EA000B185B701A601481B590B6A0B7B0B2AE0E1
:100EB00030E0888199810E94BD0D68E371E08881EE
:100EC00099810E94560DF801468157816085718590
:100ED00082859385A485B585481B590B6A0B7B0BCE
:100EE0002AE030E088819981DF91CF911F910F91A5
:100EF000FF90EF90DF90CF90BF900C94BD0D8E5B74
:100F00009F4F6AE371E0FC01808191810C945C0D3C
:100F1000CF93DF93EC010E945B096E837F83888708
:100F20009987DF91CF910895CF92DF92EF92FF9250
:100F3000CF93DF93EC0161111EC00E945B09CA8050
:100F4000DB80EC80FD806C197D098E099F09613280
:100F500071058105910578F421E2C22ED12CE12C96
:100F6000F12CC61AD70AE80AF90A21E0B701A6014E
:100F7000CE010E94D1060E945B096A837B838C8329
:100F80009D8381E0DF91CF91FF90EF90DF90CF9034
:100F900008950895FC01EC5BFF4F108211821282CC
:100FA0001382FC01128213821482158241155105AD
:100FB0006105710511F00C94F8060895FB01BA0162
:100FC000A9018E5B9F4FDC01ED93FC9326E0CF01DE
:100FD0000C94010C8E5B9F4FDC018D919C91DC0188
:100FE000ED91FC910680F781E02D099508958E5BC7
:100FF0009F4FDC018D919C91DC01ED91FC9104806F
:10100000F581E02D09950895FF920F931F93CF93DB
:10101000DF93EC01F62E0E945B096A837B838C834D
:101020009D838E010E5B1F4F61E471E0F8018081AA
:1010300091810E94560D4AE050E06F2DF8018081A9
:1010400091810E94CA0D68E471E0F801808191816C
:101050000E94560D42E350E060E070E0CE01DF9167
:10106000CF911F910F91FF900C94F8061F93CF938F
:10107000DF93EC01162F8E89882311F1CE010E9497
:10108000F707811102C085E61CC0CE010E94F70758
:101090008823C9F3CE010E94EA07883689F048F414
:1010A000883569F0833689F7612FCE010E940408E4
:1010B00007C0813729F0863741F786E702C01E8ACC
:1010C00083E6DF91CF911F9108951F93CF93DF9314
:1010D000EC01142F611105C01E8BDF91CF911F9180
:1010E000089581E08E8B60E0CE010E943608833641
:1010F00099F341E050E060E070E0CE010E94F80614
:10110000F2CF109204021092050210920602109281
:101110000702109208021092090210920A0210921D
:101120000B0210920C0210920D0210920E021092FD
:101130000F021092100210921102109212021092DD
:101140001302089508958230E8F4E82FF0E0EE0FDE
:10115000FF1FEC5FFE4F71836083813041F080910F
:1011600069008C7F842B80936900E89A08958091B0
:101170006900440F551F440F551F837F842B8093B4
:101180006900E99A08951F920F920FB60F921124E9
:101190002F933F934F935F936F937F938F939F937F
:1011A000AF93BF93EF93FF93E0910401F09105019A
:1011B0000995FF91EF91BF91AF919F918F917F9191
:1011C0006F915F914F913F912F910F900FBE0F90B4
:1011D0001F9018951F920F920FB60F9211242F9304
:1011E0003F934F935F936F937F938F939F93AF93AF
:1011F000BF93EF93FF93E0910601F09107010995EA
:10120000FF91EF91BF91AF919F918F917F916F91DE
:101210005F914F913F912F910F900FBE0F901F90B4
:1012200018951F920F920FB60F9211242F933F9390
:101230008F939F93AF93BF93809147029091480201
:10124000A0914902B0914A023091460223E0230F57
:101250002D3720F40196A11DB11D05C026E8230FEE
:101260000296A11DB11D20934602809347029093E0
:101270004802A0934902B0934A0280914B02909198
:101280004C02A0914D02B0914E020196A11DB11DDC
:1012900080934B0290934C02A0934D02B0934E0268
:1012A000BF91AF919F918F913F912F910F900FBE62
:1012B0000F901F9018952FB7F89460914702709186
:1012C00048028091490290914A022FBF08953FB78A
:1012D000F89480914B0290914C02A0914D02B091F4
:1012E0004E0226B5A89B05C02F3F19F00196A11DFF
:1012F000B11D3FBF6627782F892F9A2F620F711D6E
:10130000811D911D42E0660F771F881F991F4A9526
:10131000D1F708958F929F92AF92BF92CF92DF92B2
:10132000EF92FF926B017C010E9467094B015C0107
:10133000C114D104E104F104F1F00E942F0E0E94C7
:101340006709681979098A099B09683E7340810514
:10135000910570F321E0C21AD108E108F10888EE86
:10136000880E83E0981EA11CB11CC114D104E104B5
:10137000F10429F7DDCFFF90EF90DF90CF90BF9081
:10138000AF909F908F9008958230910538F0880F2C
:10139000991F880F991F05970197F1F70895789481
:1013A00084B5826084BD84B5816084BD85B582606A
:1013B00085BD85B5816085BDEEE6F0E08081816008
:1013C0008083E1E8F0E01082808182608083808108
:1013D00081608083E0E8F0E0808181608083E1EBE0
:1013E000F0E0808184608083E0EBF0E080818160C8
:1013F0008083EAE7F0E0808184608083808182607E
:101400008083808181608083808180688083109266
:10141000C10008958E3008F08E5087702091080129
:1014200090E4299F90011124822B80937C0080916D
:101430007A00806480937A0080917A0086FDFCCFE8
:10144000809178002091790090E0922B08951F936D
:10145000CF93DF93182FEB0161E00E94AF0A209732
:1014600011F460E004C0CF3FD10539F461E0812F71
:10147000DF91CF911F910C94E80AE12FF0E0E85939
:10148000FF4FE491E330F9F048F4E130B9F0E23095
:10149000A1F584B5806284BDC8BD34C0E730E9F0F1
:1014A000E83019F1E43049F5809180008062809342
:1014B0008000D0938B00C0938A0024C084B58068DC
:1014C00084BDC7BD1FC0809180008068809380006C
:1014D000D0938900C093880015C08091B0008068C7
:1014E0008093B000C093B3000DC08091B0008062C3
:1014F0008093B000C093B40005C0C038D1050CF093
:10150000B5CFAFCFDF91CF911F910895833081F098
:1015100028F4813099F08230A1F008958730A9F045
:101520008830B9F08430D1F4809180008F7D03C081
:10153000809180008F7780938000089584B58F77A5
:1015400002C084B58F7D84BD08958091B0008F77EF
:1015500003C08091B0008F7D8093B0000895CF9339
:10156000DF9390E0FC01E458FF4F2491FC01E05729
:10157000FF4F8491882349F190E0880F991FFC0167
:10158000E854FF4FA591B49182559F4FFC01C5913E
:10159000D4919FB7611108C0F8948C912095822353
:1015A0008C93888182230AC0623051F4F8948C9124
:1015B000322F309583238C938881822B888304C0BB
:1015C000F8948C91822B8C939FBFDF91CF910895DB
:1015D0000F931F93CF93DF931F92CDB7DEB7282FC2
:1015E00030E0F901E859FF4F8491F901E458FF4FC9
:1015F0001491F901E057FF4F04910023C9F08823AB
:1016000021F069830E94860A6981E02FF0E0EE0FE5
:10161000FF1FE255FF4FA591B4919FB7F8948C91AD
:10162000611103C01095812301C0812B8C939FBF52
:101630000F90DF91CF911F910F910895FC01818D43
:10164000228D90E0805C9F4F821B91098F739927B8
:101650000895FC01918D828D981731F0828DE80FED
:10166000F11D858D90E008958FEF9FEF0895FC01A7
:10167000918D828D981761F0828DDF01A80FB11DC9
:101680005D968C91928D9F5F9F73928F90E00895ED
:101690008FEF9FEF08958BEB9CE0892B49F080E062
:1016A00090E0892B29F00E94BB0C81110C94000062
:1016B0000895FC01848DDF01A80FB11DA35ABF4F0F
:1016C0002C91848D90E001968F739927848FA68941
:1016D000B7892C93A089B1898C9180648C93938D68
:1016E000848D981306C00288F389E02D80818F7D58
:1016F00080830895CF93DF93EC01888D8823C9F010
:10170000EA89FB89808185FD05C0A889B9898C910A
:1017100086FD0FC00FB607FCF5CF808185FFF2CFA5
:10172000A889B9898C9185FFEDCFCE010E94590B14
:10173000E7CFDF91CF910895CF92DF92FF920F9381
:101740001F93CF93DF931F92CDB7DEB76C0181E07B
:10175000D60158968C9358975B969C915B975C96B4
:101760008C915C97981307C05096ED91FC9151971E
:10177000808185FD2EC0F601038D10E00F5F1F4FA5
:101780000F731127F02EF601848DF81211C00FB6D9
:1017900007FCF9CFD6015096ED91FC9151978081CD
:1017A00085FFF1CFC60169830E94590B6981EBCF98
:1017B000838DE80FF11DE35AFF4F6083D6015B96DE
:1017C0000C935B975296ED91FC91539780818062C8
:1017D0000CC0D6015696ED91FC91579760835096B8
:1017E000ED91FC91519780818064808381E090E04D
:1017F0000F90DF91CF911F910F91FF90DF90CF90CD
:101800000895BF92CF92DF92EF92FF92CF93DF9332
:10181000EC016A017B01B22EE889F98982E08083BC
:10182000411581EE580761057105A1F060E079E08E
:101830008DE390E0A70196010E94FF0F215031092E
:10184000410951095695479537952795211580E10E
:10185000380798F0E889F989108260E874E88EE129
:1018600090E0A70196010E94FF0F21503109410924
:1018700051095695479537952795EC85FD85308319
:10188000EE85FF852083188EEC89FD89B082EA8978
:10189000FB89808180618083EA89FB8980818860FF
:1018A0008083EA89FB89808180688083EA89FB895B
:1018B00080818F7D8083DF91CF91FF90EF90DF90CB
:1018C000CF90BF9008951F920F920FB60F921124E0
:1018D0002F938F939F93EF93FF93E0915F02F0918B
:1018E00060028081E0916502F091660282FD12C083
:1018F0009081809168028F5F8F73209169028217B7
:1019000051F0E0916802F0E0E15BFD4F958F80932C
:10191000680201C08081FF91EF919F918F912F917B
:101920000F900FBE0F901F9018951F920F920FB639
:101930000F9211242F933F934F935F936F937F9355
:101940008F939F93AF93BF93EF93FF938FE492E0B6
:101950000E94590BFF91EF91BF91AF919F918F9191
:101960007F916F915F914F913F912F910F900FBE9B
:101970000F901F9018958FE492E00E941E0B21E0BB
:10198000892B09F420E0822F0895109252021092C0
:10199000510288EE93E0A0E0B0E080935302909370
:1019A0005402A0935502B09356028DE991E09093B2
:1019B000500280934F0285EC90E090935C028093FC
:1019C0005B0284EC90E090935E0280935D0280EC79
:1019D00090E09093600280935F0281EC90E090939E
:1019E00062028093610282EC90E0909364028093A3
:1019F000630286EC90E090936602809365021092F9
:101A000068021092690210926A0210926B020895A5
:101A100008950E94CF090E94080D0E94AE00CBE4F9
:101A2000DBE00E946F022097E1F30E944B0BF9CF9D
:101A3000CF92DF92EF92FF920F931F93CF93DF939A
:101A40007C016A01EB0100E010E00C151D0571F04E
:101A50006991D701ED91FC910190F081E02DC701D2
:101A60000995892B19F00F5F1F4FEFCFC801DF9148
:101A7000CF911F910F91FF90EF90DF90CF9008953D
:101A80006115710581F0DB010D900020E9F7AD01D2
:101A900041505109461B570BDC01ED91FC9102802E
:101AA000F381E02D099480E090E008950C94400DBE
:101AB0006EE471E00C94400D0F931F93CF93DF936E
:101AC000EC010E94400D8C01CE010E94580D800F48
:101AD000911FDF91CF911F910F9108958F929F9247
:101AE000AF92BF92DF92EF92FF920F931F93CF932B
:101AF000DF93CDB7DEB7A1970FB6F894DEBF0FBE68
:101B0000CDBF7C01F42FD52ECB0119A2223008F4D1
:101B10002AE08E010F5D1F4F822E912CA12CB12C3B
:101B20006F2F7D2DA50194010E94FF0FF22FD32E60
:101B3000CA01015011096A3014F4E0E301C0E7E37F
:101B4000E60FD801EC93232B242B252B49F7B80162
:101B5000C7010E94400DA1960FB6F894DEBF0FBEDC
:101B6000CDBFDF91CF911F910F91FF90EF90DF904C
:101B7000BF90AF909F908F9008952115310541F44B
:101B8000DC01ED91FC910190F081E02D642F09942E
:101B90000C946E0D9A01462F50E060E070E00C94BA
:101BA000BD0D0F931F93CF93DF93EC019A01462F46
:101BB00050E060E070E00E94BD0D8C01CE010E94FB
:101BC000580D800F911FDF91CF911F910F910895B4
:101BD0004F925F926F927F92AF92BF92CF92DF92BD
:101BE000EF92FF920F931F93CF93DF93CDB7DEB7A2
:101BF00029013A01621B730B840B950B29893A89E1
:101C00004B895C892A193B094C095D09298B3A8B60
:101C10004B8B5C8B9B01AC0169897A898B899C8990
:101C20000E94E30FE418F50806091709A8019701B7
:101C30000E9421102A0D3B1D4C1D5D1DCA01B901DA
:101C4000DF91CF911F910F91FF90EF90DF90CF9098
:101C5000BF90AF907F906F905F904F9008950895E0
:101C60005058BB27AA270ED070C161D130F066D181
:101C700020F031F49F3F11F41EF456C10EF4E095AC
:101C8000E7FB4CC1E92F72D180F3BA1762077307E3
:101C90008407950718F071F49EF58AC10EF4E0955B
:101CA0000B2EBA2FA02D0B01B90190010C01CA0116
:101CB000A0011124FF27591B99F0593F50F4503EC1
:101CC00068F11A16F040A22F232F342F4427585FB3
:101CD000F3CF469537952795A795F0405395C9F7CB
:101CE0007EF41F16BA0B620B730B840BBAF0915083
:101CF000A1F0FF0FBB1F661F771F881FC2F70EC022
:101D0000BA0F621F731F841F48F4879577956795F4
:101D1000B795F7959E3F08F0B3CF9395880F08F0DD
:101D20009927EE0F979587950895D4D008F481E010
:101D300008950CD00AC102D140F0F9D030F021F45E
:101D40005F3F19F0EBC0511134C1EEC00FD198F3D1
:101D50009923C9F35523B1F3951B550BBB27AA272C
:101D600062177307840738F09F5F5F4F220F331F9E
:101D7000441FAA1FA9F333D00E2E3AF0E0E830D06A
:101D800091505040E695001CCAF729D0FE2F27D06D
:101D9000660F771F881FBB1F261737074807AB073B
:101DA000B0E809F0BB0B802DBF01FF2793585F4FB0
:101DB0002AF09E3F510568F0B1C0FBC05F3FECF3D5
:101DC000983EDCF3869577956795B795F7959F5F75
:101DD000C9F7880F911D9695879597F90895E1E0C9
:101DE000660F771F881FBB1F621773078407BA0728
:101DF00020F0621B730B840BBA0BEE1F88F7E09583
:101E00000895BCD088F09F5790F0B92F9927B7510B
:101E1000A0F0D1F0660F771F881F991F1AF0BA95AE
:101E2000C9F712C0B13081F0C3D0B1E00895C0C08D
:101E3000672F782F8827B85F39F0B93FCCF38695A4
:101E400077956795B395D9F73EF490958095709501
:101E500061957F4F8F4F9F4F0895E89409C097FB7E
:101E60003EF490958095709561957F4F8F4F9F4F71
:101E70009923A9F0F92F96E9BB279395F6958795B5
:101E800077956795B795F111F8CFFAF4BB0F11F478
:101E900060FF1BC06F5F7F4F8F4F9F4F16C088231F
:101EA00011F096E911C0772321F09EE8872F762F55
:101EB00005C0662371F096E8862F70E060E02AF096
:101EC0009A95660F771F881FDAF7880F9695879582
:101ED00097F90895990F0008550FAA0BE0E8FEEF57
:101EE00016161706E807F907C0F012161306E407DE
:101EF000F50798F0621B730B840B950B39F40A26D7
:101F000061F0232B242B252B21F408950A2609F4B4
:101F1000A140A6958FEF811D811D089597F99F67B8
:101F200080E870E060E008959FEF80EC0895002461
:101F30000A941616170618060906089500240A942E
:101F400012161306140605060895092E0394000CB4
:101F500011F4882352F0BB0F40F4BF2B11F460FF43
:101F600004C06F5F7F4F8F4F9F4F089557FD90586C
:101F7000440F551F59F05F3F71F04795880F97FB4D
:101F8000991F61F09F3F79F0879508951216130607
:101F90001406551FF2CF4695F1DF08C01616170636
:101FA0001806991FF1CF869571056105089408956B
:101FB000E894BB2766277727CB0197F908958ADF36
:101FC00008F48FEF0895DB018F939F930E944010D8
:101FD000BF91AF91A29F800D911DA39F900DB29FC5
:101FE000900D11240895991B79E004C0991F96174C
:101FF00008F0961B881F7A95C9F780950895A1E28D
:102000001A2EAA1BBB1BFD010DC0AA1FBB1FEE1F72
:10201000FF1FA217B307E407F50720F0A21BB30BBD
:10202000E40BF50B661F771F881F991F1A9469F739
:1020300060957095809590959B01AC01BD01CF0195
:102040000895052E97FB1EF400940E94381057FD4A
:1020500007D00E94FF0F07FC03D04EF40C943810F9
:1020600050954095309521953F4F4F4F5F4F0895C4
:1020700090958095709561957F4F8F4F9F4F0895F4
:102080000E945110A59F900DB49F900DA49F800DAC
:10209000911D11240895EE0FFF1F0590F491E02D7E
:1020A0000994A29FB001B39FC001A39F700D811D31
:1020B0001124911DB29F700D811D1124911D089551
:0420C000F894FFCFC2
:1020C40001000000A208A20801564D4450565F3199
:1020D4007C315F564D4450560D0A007C0064726F8B
:1020E400705F73656E736F725F666C673A2000563B
:1020F4004D4450455F003A323A005F564D445045D6
:1021040000564D4450435F005F564D4450430D0A02
:10211400004572726F723A20417474656D70742058
:10212400746F20736574206120726561642D6F6E15
:102134006C79207661726961626C65206F722064CB
:102144006174612074797065206E6F74207375708A
:10215400706F727465640D0A00000000009C0B1817
:102164000D1E0B370B290B7A0B6E616E00696E66C0
:08217400006F7666002E0000EA
:107E0000112484B714BE81FFF0D085E080938100F7
:107E100082E08093C00088E18093C10086E0809377
:107E2000C20080E18093C4008EE0C9D0259A86E02C
:107E300020E33CEF91E0309385002093840096BBD3
:107E4000B09BFECF1D9AA8958150A9F7CC24DD24C4
:107E500088248394B5E0AB2EA1E19A2EF3E0BF2EE7
:107E6000A2D0813461F49FD0082FAFD0023811F036
:107E7000013811F484E001C083E08DD089C08234E0
:107E800011F484E103C0853419F485E0A6D080C0E4
:107E9000853579F488D0E82EFF2485D0082F10E0AE
:107EA000102F00270E291F29000F111F8ED06801E7
:107EB0006FC0863521F484E090D080E0DECF843638
:107EC00009F040C070D06FD0082F6DD080E0C81688
:107ED00080E7D80618F4F601B7BEE895C0E0D1E017
:107EE00062D089930C17E1F7F0E0CF16F0E7DF06D8
:107EF00018F0F601B7BEE89568D007B600FCFDCFD4
:107F0000A601A0E0B1E02C9130E011968C91119780
:107F100090E0982F8827822B932B1296FA010C0160
:107F200087BEE89511244E5F5F4FF1E0A038BF0790
:107F300051F7F601A7BEE89507B600FCFDCF97BE46
:107F4000E89526C08437B1F42ED02DD0F82E2BD052
:107F50003CD0F601EF2C8F010F5F1F4F84911BD097
:107F6000EA94F801C1F70894C11CD11CFA94CF0C13
:107F7000D11C0EC0853739F428D08EE10CD085E9AC
:107F80000AD08FE07ACF813511F488E018D01DD067
:107F900080E101D065CF982F8091C00085FFFCCF94
:107FA0009093C60008958091C00087FFFCCF809118
:107FB000C00084FD01C0A8958091C6000895E0E648
:107FC000F0E098E1908380830895EDDF803219F02E
:107FD00088E0F5DFFFCF84E1DECF1F93182FE3DFCA
:107FE0001150E9F7F2DF1F91089580E0E8DFEE27F6
:047FF000FF270994CA
:027FFE00040479
:0400000300007E007B
:00000001FF