:100000000C9463000C948B000C948B000C948B006C
:100010000C948B000C948B000C948B000C940303B9
:100020000C948B000C948B000C948B000C94480166
:100030000C948B000C948B000C948B000C948B0014
:100040000C942A030C948B000C9471060C94A30658
:100050000C948B000C948B000C948B000C948B00F4
:100060000C948B000C948B0000000008000201002F
:100070000003040700000000000000000102040863
:100080001020408001020408102001020408102002
:10009000040404040404040402020202020203032E
:1000A00003030303000000002300260029000000D2
:1000B0000000250028002B0000000000240027007D
:1000C0002A003C01D30611241FBECFEFD8E0DEBFCB
:1000D000CDBF11E0A0E0B1E0EAE0FFE002C0059092
:1000E0000D92A431B107D9F721E0A4E1B1E001C03C
:1000F0001D92A73FB207E1F710E0C6ECD0E004C0C4
:100100002297FE010E947F07C23CD107C9F70E94D7
:1001100017070C9483070C94000026E040E052EC93
:1001200061E070E08AE591E00E940F0661E08FE0F7
:100130000E94940461E080E10E94940461E081E106
:100140000E94940461E082E10E94940462E08EE0E7
:100150000E94CD0462E083E10E94CD0460E087E06C
:100160000E94940460E084E00E9494046BE070E0DC
:1001700084E191E00E949E0268EB7BE080E090E0E9
:100180000C949703CF93DF93EC0197FD0AC061E0D5
:100190008FE00E94CD0460E080E10E94CD04BE01AA
:1001A0000CC060E08FE00E94CD0461E080E10E941D
:1001B000CD04662777276C1B7D0B85E0DF91CF91FF
:1001C0000C940C04CF93DF93EC0197FD0AC061E01F
:1001D00081E10E94CD0460E082E10E94CD04BE0175
:1001E0000CC060E081E10E94CD0461E082E10E94E8
:1001F000CD04662777276C1B7D0B86E0DF91CF91BE
:100200000C940C04CF93DF93EB010E94C200CE014B
:10021000DF91CF910C94E20090E066277727681B6E
:10022000790B0C94020190E0919581959109BC01A4
:100230000C94020187E00E940305019729F087E0F2
:100240000E940305019791F488EC0E94130168EC69
:1002500070E080E090E00E94970386E90E940C0124
:1002600068E572E080E090E00C9497036AE570E046
:1002700089E590E00C94020128EC30E049E068E068
:1002800087E191E00E94B60284E191E00C940402BF
:100290001F920F920FB60F9211242F933F934F93FB
:1002A0005F936F937F938F939F93AF93BF93EF93DE
:1002B000FF9380912A0187FF05C01092850010925C
:1002C00084001AC020912A01332727FD30958091A0
:1002D000290190E0281739077CF480912A01992799
:1002E00087FD9095FC01EE0FFF1FE80FF91FE55DFC
:1002F000FE4F808186FD15C080912A018F5F80931B
:100300002A0120912A01332727FD30958091290168
:1003100090E028173907BCF480912A018C305CF1F9
:1003200012C080912A01992787FD9095FC01EE0F5C
:10033000FF1FE80FF91FE55DFE4F808160E08F73BE
:100340000E94CD04D9CF80918400909185000496BD
:1003500080349C4918F480E49CE905C080918400B5
:1003600090918500049690938900809388008FEF88
:1003700080932A0138C020918400309185008091BB
:100380002A01992787FD9095FC01EE0FFF1FE80FCA
:10039000F91FE55DFE4F81819281820F931F90933B
:1003A00089008093880080912A01992787FD909584
:1003B000FC01EE0FFF1FE80FF91FE55DFE4F808186
:1003C00086FF11C080912A01992787FD9095FC0135
:1003D000EE0FFF1FE80FF91FE55DFE4F808161E022
:1003E0008F730E94CD04FF91EF91BF91AF919F91C8
:1003F0008F917F916F915F914F913F912F910F90CE
:100400000FBE0F901F901895209129012C30A0F459
:1004100031E0320F30932901FC012083822F90E0DC
:10042000FC01EE0FFF1FE80FF91FE55DFE4F88EBA3
:100430009BE09283818308952FEFFC012083089530
:10044000DF92EF92FF920F931F93CF93DF93EC0114
:10045000D62E7A01890188818C3008F066C061E06F
:100460008D2D0E9494048881A82FB0E0FD01EE0F2D
:10047000FF1FEA0FFB1FE55DFE4F2D2D2F739081AF
:10048000907C922B908360E272E06E197F0977FF77
:1004900002C06D5F7F4F7595679575956795698308
:1004A00040E659E0401B510B57FF02C04D5F5F4FC4
:1004B00055954795559547954A836CE00E944F079F
:1004C0009CE0899FB001112420E030E0A901460F93
:1004D000571FFA01EE0FFF1FE40FF51FE55DFE4FFA
:1004E000908196FD16C02F5F3F4F2C30310571F77C
:1004F00081110FC01092800082E0809381001092E1
:10050000850010928400B19A80916F008260809380
:100510006F00888190E0FC01EE0FFF1FE80FF91FCC
:10052000E55DFE4F8081806480838881DF91CF917B
:100530001F910F91FF90EF90DF90089520E639E032
:1005400040E252E00C9420026F5F7F4F49E3469FE8
:100550009001479F300D11242E384FE6340710F0DC
:100560002DE83FE6FC013587248708950F931F93FC
:10057000CF93DF93DC01062F10E0F801E458FF4F22
:10058000E4911496EC931497842F90E0FC01E458C6
:10059000FF4FE4911596EC93159700571F4FF80104
:1005A000C491D0E0CC0FDD1FC255DF4FFE01459155
:1005B000549117965C934E931697FC01E057FF4FAA
:1005C000849190E0880F991F8C559F4FFC014591B5
:1005D000549119965C934E931897F8010491E02F6B
:1005E000F0E0EE0FFF1FE854FF4F859194911B96AA
:1005F0009C938E931A97B901CD01DF91CF911F91F2
:100600000F910C94A4021F920F920FB60F92112417
:100610002F933F934F935F936F937F938F939F930A
:10062000AF93BF93EF93FF93E0914F01F09150018F
:100630000995FF91EF91BF91AF919F918F917F911C
:100640006F915F914F913F912F910F900FBE0F903F
:100650001F9018951F920F920FB60F9211242F938F
:100660003F938F939F93AF93BF938091520190914B
:100670005301A0915401B09155013091510123E0F3
:10068000230F2D3720F40196A11DB11D05C026E8CA
:10069000230F0296A11DB11D209351018093520199
:1006A00090935301A0935401B0935501809156014A
:1006B00090915701A0915801B09159010196A11D47
:1006C000B11D8093560190935701A0935801B093A8
:1006D0005901BF91AF919F918F913F912F910F90B1
:1006E0000FBE0F901F9018953FB7F8948091560158
:1006F00090915701A0915801B091590126B5A89B3E
:1007000005C02F3F19F00196A11DB11D3FBF6627FF
:10071000782F892F9A2F620F711D811D911D42E044
:10072000660F771F881F991F4A95D1F708958F92FA
:100730009F92AF92BF92CF92DF92EF92FF926B01A6
:100740007C010E9474034B015C01C114D104E104DB
:10075000F104F1F00E944E070E94740368197909B0
:100760008A099B09683E73408105910570F321E079
:10077000C21AD108E108F10888EE880E83E0981EBD
:10078000A11CB11CC114D104E104F10429F7DDCF8F
:10079000FF90EF90DF90CF90BF90AF909F908F90A1
:1007A0000895789484B5826084BD84B5816084BDE9
:1007B00085B5826085BD85B5816085BDEEE6F0E0DA
:1007C000808181608083E1E8F0E010828081826036
:1007D0008083808181608083E0E8F0E080818160B7
:1007E0008083E1EBF0E0808184608083E0EBF0E0E7
:1007F000808181608083EAE7F0E08081846080838B
:100800008081826080838081816080838081806834
:1008100080831092C10008951F93CF93DF93182F08
:10082000EB0161E00E949404209711F460E004C0A1
:10083000CF3FD10539F461E0812FDF91CF911F9136
:100840000C94CD04E12FF0E0E859FF4FE491E33040
:10085000F9F048F4E130B9F0E230A1F584B58062F6
:1008600084BDC8BD34C0E730E9F0E83019F1E430A8
:1008700049F580918000806280938000D0938B0046
:10088000C0938A0024C084B5806884BDC7BD1FC0E2
:1008900080918000806880938000D0938900C0930D
:1008A000880015C08091B00080688093B000C0932C
:1008B000B3000DC08091B00080628093B000C093FF
:1008C000B40005C0C038D1050CF0B5CFAFCFDF9173
:1008D000CF911F910895833081F028F4813099F0F1
:1008E0008230A1F008958730A9F08830B9F08430C3
:1008F000D1F4809180008F7D03C0809180008F773C
:1009000080938000089584B58F7702C084B58F7D71
:1009100084BD08958091B0008F7703C08091B000AE
:100920008F7D8093B0000895CF93DF9390E0FC011A
:10093000E458FF4F2491FC01E057FF4F8491882336
:1009400049F190E0880F991FFC01E854FF4FA591F1
:10095000B49182559F4FFC01C591D4919FB761110D
:1009600008C0F8948C91209582238C9388818223EF
:100970000AC0623051F4F8948C91322F3095832361
:100980008C938881822B888304C0F8948C91822B6D
:100990008C939FBFDF91CF9108950F931F93CF93B7
:1009A000DF931F92CDB7DEB7282F30E0F901E85969
:1009B000FF4F8491F901E458FF4F1491F901E0577A
:1009C000FF4F04910023C9F0882321F069830E941E
:1009D0006B046981E02FF0E0EE0FFF1FE255FF4F3F
:1009E000A591B4919FB7F8948C91611103C01095B3
:1009F000812301C0812B8C939FBF0F90DF91CF91FA
:100A00001F910F910895CF93DF93282F30E0F901C4
:100A1000E859FF4F8491F901E458FF4FD491F9014F
:100A2000E057FF4FC491CC2391F081110E946B04D9
:100A3000EC2FF0E0EE0FFF1FEC55FF4FA591B491A6
:100A40002C912D2381E090E021F480E002C080E031
:100A500090E0DF91CF910895FC01818D228D90E08F
:100A6000805C9F4F821B91098F7399270895FC0129
:100A7000918D828D981731F0828DE80FF11D858D53
:100A800090E008958FEF9FEF0895FC01918D828D86
:100A9000981761F0828DDF01A80FB11D5D968C91D2
:100AA000928D9F5F9F73928F90E008958FEF9FEFDD
:100AB000089589EC96E0892B49F080E090E0892B3D
:100AC00029F00E94C90681110C9400000895FC01D0
:100AD000848DDF01A80FB11DA35ABF4F2C91848DC7
:100AE00090E001968F739927848FA689B7892C93FC
:100AF000A089B1898C9180648C93938D848D981397
:100B000006C00288F389E02D80818F7D808308955F
:100B1000CF93DF93EC01888D8823C9F0EA89FB89A4
:100B2000808185FD05C0A889B9898C9186FD0FC09B
:100B30000FB607FCF5CF808185FFF2CFA889B98970
:100B40008C9185FFEDCFCE010E946705E7CFDF9145
:100B5000CF910895CF92DF92FF920F931F93CF937F
:100B6000DF931F92CDB7DEB76C0181E0D6015896B6
:100B70008C9358975B969C915B975C968C915C9755
:100B8000981307C05096ED91FC915197808185FD97
:100B90002EC0F601038D10E00F5F1F4F0F7311275A
:100BA000F02EF601848DF81211C00FB607FCF9CFB4
:100BB000D6015096ED91FC915197808185FFF1CF40
:100BC000C60169830E9467056981EBCF838DE80FB9
:100BD000F11DE35AFF4F6083D6015B960C935B9740
:100BE0005296ED91FC915397808180620CC0D601A2
:100BF0005696ED91FC91579760835096ED91FC913C
:100C0000519780818064808381E090E00F90DF9134
:100C1000CF911F910F91FF90DF90CF900895BF92D9
:100C2000CF92DF92EF92FF92CF93DF93EC016A01B4
:100C30007B01B22EE889F98982E08083411581EE3B
:100C4000580761057105A1F060E079E08DE390E05F
:100C5000A70196010E945B07215031094109510902
:100C60005695479537952795211580E1380798F0D7
:100C7000E889F989108260E874E88EE190E0A701C4
:100C800096010E945B07215031094109510956958F
:100C9000479537952795EC85FD853083EE85FF8553
:100CA0002083188EEC89FD89B082EA89FB898081D6
:100CB00080618083EA89FB89808188608083EA89FA
:100CC000FB89808180688083EA89FB8980818F7DB0
:100CD0008083DF91CF91FF90EF90DF90CF90BF9016
:100CE00008951F920F920FB60F9211242F938F9396
:100CF0009F93EF93FF93E0916A01F0916B018081E4
:100D0000E0917001F091710182FD12C0908180919B
:100D100073018F5F8F7320917401821751F0E091FE
:100D20007301F0E0E65AFE4F958F8093730101C086
:100D30008081FF91EF919F918F912F910F900FBE26
:100D40000F901F9018951F920F920FB60F921124BB
:100D50002F933F934F935F936F937F938F939F93C3
:100D6000AF93BF93EF93FF938AE591E00E946705ED
:100D7000FF91EF91BF91AF919F918F917F916F9173
:100D80005F914F913F912F910F900FBE0F901F9049
:100D900018958AE591E00E942C0521E0892B09F441
:100DA00020E0822F089510925D0110925C0188EE80
:100DB00093E0A0E0B0E080935E0190935F01A09388
:100DC0006001B093610188E091E090935B018093B2
:100DD0005A0185EC90E0909367018093660184EC62
:100DE00090E0909369018093680180EC90E090938B
:100DF0006B0180936A0181EC90E090936D01809388
:100E00006C0182EC90E090936F0180936E0186EC10
:100E100090E0909371018093700110927301109291
:100E200074011092750110927601089508950E9440
:100E3000D1030E9416070E948D00C9E5D5E00E94EB
:100E40001A012097E1F30E945905F9CFCF92DF9262
:100E5000EF92FF920F931F93CF93DF937C016A0170
:100E6000EB0100E010E00C151D0571F06991D70150
:100E7000ED91FC910190F081E02DC7010995892B3E
:100E800019F00F5F1F4FEFCFC801DF91CF911F9176
:100E90000F91FF90EF90DF90CF9008950895991BE8
:100EA00079E004C0991F961708F0961B881F7A9561
:100EB000C9F780950895A1E21A2EAA1BBB1BFD015C
:100EC0000DC0AA1FBB1FEE1FFF1FA217B307E40729
:100ED000F50720F0A21BB30BE40BF50B661F771F81
:100EE000881F991F1A9469F7609570958095909561
:100EF0009B01AC01BD01CF010895EE0FFF1F0590CE
:0A0F0000F491E02D0994F894FFCF5E
:100F0A000100000000000000AA0526072C0545057F
:040F1A00370588050A
:107E0000112484B714BE81FFF0D085E080938100F7
:107E100082E08093C00088E18093C10086E0809377
:107E2000C20080E18093C4008EE0C9D0259A86E02C
:107E300020E33CEF91E0309385002093840096BBD3
:107E4000B09BFECF1D9AA8958150A9F7CC24DD24C4
:107E500088248394B5E0AB2EA1E19A2EF3E0BF2EE7
:107E6000A2D0813461F49FD0082FAFD0023811F036
:107E7000013811F484E001C083E08DD089C08234E0
:107E800011F484E103C0853419F485E0A6D080C0E4
:107E9000853579F488D0E82EFF2485D0082F10E0AE
:107EA000102F00270E291F29000F111F8ED06801E7
:107EB0006FC0863521F484E090D080E0DECF843638
:107EC00009F040C070D06FD0082F6DD080E0C81688
:107ED00080E7D80618F4F601B7BEE895C0E0D1E017
:107EE00062D089930C17E1F7F0E0CF16F0E7DF06D8
:107EF00018F0F601B7BEE89568D007B600FCFDCFD4
:107F0000A601A0E0B1E02C9130E011968C91119780
:107F100090E0982F8827822B932B1296FA010C0160
:107F200087BEE89511244E5F5F4FF1E0A038BF0790
:107F300051F7F601A7BEE89507B600FCFDCF97BE46
:107F4000E89526C08437B1F42ED02DD0F82E2BD052
:107F50003CD0F601EF2C8F010F5F1F4F84911BD097
:107F6000EA94F801C1F70894C11CD11CFA94CF0C13
:107F7000D11C0EC0853739F428D08EE10CD085E9AC
:107F80000AD08FE07ACF813511F488E018D01DD067
:107F900080E101D065CF982F8091C00085FFFCCF94
:107FA0009093C60008958091C00087FFFCCF809118
:107FB000C00084FD01C0A8958091C6000895E0E648
:107FC000F0E098E1908380830895EDDF803219F02E
:107FD00088E0F5DFFFCF84E1DECF1F93182FE3DFCA
:107FE0001150E9F7F2DF1F91089580E0E8DFEE27F6
:047FF000FF270994CA
:027FFE00040479
:0400000300007E007B
:00000001FF